{
  "contractName": "ConcertTickets",
  "abi": [
    {
      "inputs": [],
      "stateMutability": "nonpayable",
      "type": "constructor"
    },
    {
      "inputs": [],
      "name": "ERC721EnumerableForbiddenBatchMint",
      "type": "error"
    },
    {
      "inputs": [
        {
          "internalType": "address",
          "name": "sender",
          "type": "address"
        },
        {
          "internalType": "uint256",
          "name": "tokenId",
          "type": "uint256"
        },
        {
          "internalType": "address",
          "name": "owner",
          "type": "address"
        }
      ],
      "name": "ERC721IncorrectOwner",
      "type": "error"
    },
    {
      "inputs": [
        {
          "internalType": "address",
          "name": "operator",
          "type": "address"
        },
        {
          "internalType": "uint256",
          "name": "tokenId",
          "type": "uint256"
        }
      ],
      "name": "ERC721InsufficientApproval",
      "type": "error"
    },
    {
      "inputs": [
        {
          "internalType": "address",
          "name": "approver",
          "type": "address"
        }
      ],
      "name": "ERC721InvalidApprover",
      "type": "error"
    },
    {
      "inputs": [
        {
          "internalType": "address",
          "name": "operator",
          "type": "address"
        }
      ],
      "name": "ERC721InvalidOperator",
      "type": "error"
    },
    {
      "inputs": [
        {
          "internalType": "address",
          "name": "owner",
          "type": "address"
        }
      ],
      "name": "ERC721InvalidOwner",
      "type": "error"
    },
    {
      "inputs": [
        {
          "internalType": "address",
          "name": "receiver",
          "type": "address"
        }
      ],
      "name": "ERC721InvalidReceiver",
      "type": "error"
    },
    {
      "inputs": [
        {
          "internalType": "address",
          "name": "sender",
          "type": "address"
        }
      ],
      "name": "ERC721InvalidSender",
      "type": "error"
    },
    {
      "inputs": [
        {
          "internalType": "uint256",
          "name": "tokenId",
          "type": "uint256"
        }
      ],
      "name": "ERC721NonexistentToken",
      "type": "error"
    },
    {
      "inputs": [
        {
          "internalType": "address",
          "name": "owner",
          "type": "address"
        },
        {
          "internalType": "uint256",
          "name": "index",
          "type": "uint256"
        }
      ],
      "name": "ERC721OutOfBoundsIndex",
      "type": "error"
    },
    {
      "inputs": [
        {
          "internalType": "address",
          "name": "owner",
          "type": "address"
        }
      ],
      "name": "OwnableInvalidOwner",
      "type": "error"
    },
    {
      "inputs": [
        {
          "internalType": "address",
          "name": "account",
          "type": "address"
        }
      ],
      "name": "OwnableUnauthorizedAccount",
      "type": "error"
    },
    {
      "anonymous": false,
      "inputs": [
        {
          "indexed": true,
          "internalType": "address",
          "name": "owner",
          "type": "address"
        },
        {
          "indexed": true,
          "internalType": "address",
          "name": "approved",
          "type": "address"
        },
        {
          "indexed": true,
          "internalType": "uint256",
          "name": "tokenId",
          "type": "uint256"
        }
      ],
      "name": "Approval",
      "type": "event"
    },
    {
      "anonymous": false,
      "inputs": [
        {
          "indexed": true,
          "internalType": "address",
          "name": "owner",
          "type": "address"
        },
        {
          "indexed": true,
          "internalType": "address",
          "name": "operator",
          "type": "address"
        },
        {
          "indexed": false,
          "internalType": "bool",
          "name": "approved",
          "type": "bool"
        }
      ],
      "name": "ApprovalForAll",
      "type": "event"
    },
    {
      "anonymous": false,
      "inputs": [
        {
          "indexed": true,
          "internalType": "uint256",
          "name": "eventId",
          "type": "uint256"
        },
        {
          "indexed": false,
          "internalType": "string",
          "name": "name",
          "type": "string"
        },
        {
          "indexed": true,
          "internalType": "address",
          "name": "organizer",
          "type": "address"
        }
      ],
      "name": "EventCreated",
      "type": "event"
    },
    {
      "anonymous": false,
      "inputs": [
        {
          "indexed": true,
          "internalType": "address",
          "name": "previousOwner",
          "type": "address"
        },
        {
          "indexed": true,
          "internalType": "address",
          "name": "newOwner",
          "type": "address"
        }
      ],
      "name": "OwnershipTransferred",
      "type": "event"
    },
    {
      "anonymous": false,
      "inputs": [
        {
          "indexed": true,
          "internalType": "uint256",
          "name": "ticketId",
          "type": "uint256"
        },
        {
          "indexed": true,
          "internalType": "uint256",
          "name": "eventId",
          "type": "uint256"
        },
        {
          "indexed": false,
          "internalType": "uint256",
          "name": "seatNumber",
          "type": "uint256"
        },
        {
          "indexed": true,
          "internalType": "address",
          "name": "buyer",
          "type": "address"
        }
      ],
      "name": "TicketPurchased",
      "type": "event"
    },
    {
      "anonymous": false,
      "inputs": [
        {
          "indexed": true,
          "internalType": "uint256",
          "name": "ticketId",
          "type": "uint256"
        },
        {
          "indexed": true,
          "internalType": "address",
          "name": "from",
          "type": "address"
        },
        {
          "indexed": true,
          "internalType": "address",
          "name": "to",
          "type": "address"
        }
      ],
      "name": "TicketTransferred",
      "type": "event"
    },
    {
      "anonymous": false,
      "inputs": [
        {
          "indexed": true,
          "internalType": "uint256",
          "name": "ticketId",
          "type": "uint256"
        },
        {
          "indexed": true,
          "internalType": "uint256",
          "name": "eventId",
          "type": "uint256"
        }
      ],
      "name": "TicketUsed",
      "type": "event"
    },
    {
      "anonymous": false,
      "inputs": [
        {
          "indexed": true,
          "internalType": "address",
          "name": "from",
          "type": "address"
        },
        {
          "indexed": true,
          "internalType": "address",
          "name": "to",
          "type": "address"
        },
        {
          "indexed": true,
          "internalType": "uint256",
          "name": "tokenId",
          "type": "uint256"
        }
      ],
      "name": "Transfer",
      "type": "event"
    },
    {
      "inputs": [
        {
          "internalType": "address",
          "name": "to",
          "type": "address"
        },
        {
          "internalType": "uint256",
          "name": "tokenId",
          "type": "uint256"
        }
      ],
      "name": "approve",
      "outputs": [],
      "stateMutability": "nonpayable",
      "type": "function"
    },
    {
      "inputs": [
        {
          "internalType": "address",
          "name": "owner",
          "type": "address"
        }
      ],
      "name": "balanceOf",
      "outputs": [
        {
          "internalType": "uint256",
          "name": "",
          "type": "uint256"
        }
      ],
      "stateMutability": "view",
      "type": "function",
      "constant": true
    },
    {
      "inputs": [
        {
          "internalType": "uint256",
          "name": "",
          "type": "uint256"
        }
      ],
      "name": "events",
      "outputs": [
        {
          "internalType": "uint256",
          "name": "id",
          "type": "uint256"
        },
        {
          "internalType": "string",
          "name": "name",
          "type": "string"
        },
        {
          "internalType": "string",
          "name": "venue",
          "type": "string"
        },
        {
          "internalType": "uint256",
          "name": "date",
          "type": "uint256"
        },
        {
          "internalType": "uint256",
          "name": "ticketPrice",
          "type": "uint256"
        },
        {
          "internalType": "uint256",
          "name": "totalSeats",
          "type": "uint256"
        },
        {
          "internalType": "uint256",
          "name": "soldTickets",
          "type": "uint256"
        },
        {
          "internalType": "address",
          "name": "organizer",
          "type": "address"
        },
        {
          "internalType": "bool",
          "name": "isActive",
          "type": "bool"
        }
      ],
      "stateMutability": "view",
      "type": "function",
      "constant": true
    },
    {
      "inputs": [
        {
          "internalType": "uint256",
          "name": "tokenId",
          "type": "uint256"
        }
      ],
      "name": "getApproved",
      "outputs": [
        {
          "internalType": "address",
          "name": "",
          "type": "address"
        }
      ],
      "stateMutability": "view",
      "type": "function",
      "constant": true
    },
    {
      "inputs": [
        {
          "internalType": "address",
          "name": "owner",
          "type": "address"
        },
        {
          "internalType": "address",
          "name": "operator",
          "type": "address"
        }
      ],
      "name": "isApprovedForAll",
      "outputs": [
        {
          "internalType": "bool",
          "name": "",
          "type": "bool"
        }
      ],
      "stateMutability": "view",
      "type": "function",
      "constant": true
    },
    {
      "inputs": [],
      "name": "name",
      "outputs": [
        {
          "internalType": "string",
          "name": "",
          "type": "string"
        }
      ],
      "stateMutability": "view",
      "type": "function",
      "constant": true
    },
    {
      "inputs": [],
      "name": "owner",
      "outputs": [
        {
          "internalType": "address",
          "name": "",
          "type": "address"
        }
      ],
      "stateMutability": "view",
      "type": "function",
      "constant": true
    },
    {
      "inputs": [
        {
          "internalType": "uint256",
          "name": "tokenId",
          "type": "uint256"
        }
      ],
      "name": "ownerOf",
      "outputs": [
        {
          "internalType": "address",
          "name": "",
          "type": "address"
        }
      ],
      "stateMutability": "view",
      "type": "function",
      "constant": true
    },
    {
      "inputs": [],
      "name": "platformFeePercent",
      "outputs": [
        {
          "internalType": "uint256",
          "name": "",
          "type": "uint256"
        }
      ],
      "stateMutability": "view",
      "type": "function",
      "constant": true
    },
    {
      "inputs": [],
      "name": "platformWallet",
      "outputs": [
        {
          "internalType": "address",
          "name": "",
          "type": "address"
        }
      ],
      "stateMutability": "view",
      "type": "function",
      "constant": true
    },
    {
      "inputs": [],
      "name": "renounceOwnership",
      "outputs": [],
      "stateMutability": "nonpayable",
      "type": "function"
    },
    {
      "inputs": [
        {
          "internalType": "address",
          "name": "from",
          "type": "address"
        },
        {
          "internalType": "address",
          "name": "to",
          "type": "address"
        },
        {
          "internalType": "uint256",
          "name": "tokenId",
          "type": "uint256"
        }
      ],
      "name": "safeTransferFrom",
      "outputs": [],
      "stateMutability": "nonpayable",
      "type": "function"
    },
    {
      "inputs": [
        {
          "internalType": "address",
          "name": "from",
          "type": "address"
        },
        {
          "internalType": "address",
          "name": "to",
          "type": "address"
        },
        {
          "internalType": "uint256",
          "name": "tokenId",
          "type": "uint256"
        },
        {
          "internalType": "bytes",
          "name": "data",
          "type": "bytes"
        }
      ],
      "name": "safeTransferFrom",
      "outputs": [],
      "stateMutability": "nonpayable",
      "type": "function"
    },
    {
      "inputs": [
        {
          "internalType": "uint256",
          "name": "",
          "type": "uint256"
        },
        {
          "internalType": "uint256",
          "name": "",
          "type": "uint256"
        }
      ],
      "name": "seatTaken",
      "outputs": [
        {
          "internalType": "bool",
          "name": "",
          "type": "bool"
        }
      ],
      "stateMutability": "view",
      "type": "function",
      "constant": true
    },
    {
      "inputs": [
        {
          "internalType": "uint256",
          "name": "",
          "type": "uint256"
        },
        {
          "internalType": "uint256",
          "name": "",
          "type": "uint256"
        }
      ],
      "name": "seatToTicket",
      "outputs": [
        {
          "internalType": "uint256",
          "name": "",
          "type": "uint256"
        }
      ],
      "stateMutability": "view",
      "type": "function",
      "constant": true
    },
    {
      "inputs": [
        {
          "internalType": "address",
          "name": "operator",
          "type": "address"
        },
        {
          "internalType": "bool",
          "name": "approved",
          "type": "bool"
        }
      ],
      "name": "setApprovalForAll",
      "outputs": [],
      "stateMutability": "nonpayable",
      "type": "function"
    },
    {
      "inputs": [],
      "name": "symbol",
      "outputs": [
        {
          "internalType": "string",
          "name": "",
          "type": "string"
        }
      ],
      "stateMutability": "view",
      "type": "function",
      "constant": true
    },
    {
      "inputs": [
        {
          "internalType": "uint256",
          "name": "",
          "type": "uint256"
        }
      ],
      "name": "tickets",
      "outputs": [
        {
          "internalType": "uint256",
          "name": "eventId",
          "type": "uint256"
        },
        {
          "internalType": "uint256",
          "name": "seatNumber",
          "type": "uint256"
        },
        {
          "internalType": "bool",
          "name": "isUsed",
          "type": "bool"
        },
        {
          "internalType": "uint256",
          "name": "purchaseDate",
          "type": "uint256"
        },
        {
          "internalType": "address",
          "name": "originalBuyer",
          "type": "address"
        }
      ],
      "stateMutability": "view",
      "type": "function",
      "constant": true
    },
    {
      "inputs": [
        {
          "internalType": "uint256",
          "name": "index",
          "type": "uint256"
        }
      ],
      "name": "tokenByIndex",
      "outputs": [
        {
          "internalType": "uint256",
          "name": "",
          "type": "uint256"
        }
      ],
      "stateMutability": "view",
      "type": "function",
      "constant": true
    },
    {
      "inputs": [
        {
          "internalType": "address",
          "name": "owner",
          "type": "address"
        },
        {
          "internalType": "uint256",
          "name": "index",
          "type": "uint256"
        }
      ],
      "name": "tokenOfOwnerByIndex",
      "outputs": [
        {
          "internalType": "uint256",
          "name": "",
          "type": "uint256"
        }
      ],
      "stateMutability": "view",
      "type": "function",
      "constant": true
    },
    {
      "inputs": [
        {
          "internalType": "uint256",
          "name": "tokenId",
          "type": "uint256"
        }
      ],
      "name": "tokenURI",
      "outputs": [
        {
          "internalType": "string",
          "name": "",
          "type": "string"
        }
      ],
      "stateMutability": "view",
      "type": "function",
      "constant": true
    },
    {
      "inputs": [],
      "name": "totalSupply",
      "outputs": [
        {
          "internalType": "uint256",
          "name": "",
          "type": "uint256"
        }
      ],
      "stateMutability": "view",
      "type": "function",
      "constant": true
    },
    {
      "inputs": [
        {
          "internalType": "address",
          "name": "from",
          "type": "address"
        },
        {
          "internalType": "address",
          "name": "to",
          "type": "address"
        },
        {
          "internalType": "uint256",
          "name": "tokenId",
          "type": "uint256"
        }
      ],
      "name": "transferFrom",
      "outputs": [],
      "stateMutability": "nonpayable",
      "type": "function"
    },
    {
      "inputs": [
        {
          "internalType": "address",
          "name": "newOwner",
          "type": "address"
        }
      ],
      "name": "transferOwnership",
      "outputs": [],
      "stateMutability": "nonpayable",
      "type": "function"
    },
    {
      "inputs": [
        {
          "internalType": "string",
          "name": "_name",
          "type": "string"
        },
        {
          "internalType": "string",
          "name": "_venue",
          "type": "string"
        },
        {
          "internalType": "uint256",
          "name": "_date",
          "type": "uint256"
        },
        {
          "internalType": "uint256",
          "name": "_ticketPrice",
          "type": "uint256"
        },
        {
          "internalType": "uint256",
          "name": "_totalSeats",
          "type": "uint256"
        }
      ],
      "name": "createEvent",
      "outputs": [
        {
          "internalType": "uint256",
          "name": "",
          "type": "uint256"
        }
      ],
      "stateMutability": "nonpayable",
      "type": "function"
    },
    {
      "inputs": [
        {
          "internalType": "uint256",
          "name": "_eventId",
          "type": "uint256"
        },
        {
          "internalType": "uint256",
          "name": "_seatNumber",
          "type": "uint256"
        }
      ],
      "name": "purchaseTicket",
      "outputs": [
        {
          "internalType": "uint256",
          "name": "",
          "type": "uint256"
        }
      ],
      "stateMutability": "payable",
      "type": "function",
      "payable": true
    },
    {
      "inputs": [
        {
          "internalType": "uint256",
          "name": "_ticketId",
          "type": "uint256"
        }
      ],
      "name": "useTicket",
      "outputs": [],
      "stateMutability": "nonpayable",
      "type": "function"
    },
    {
      "inputs": [
        {
          "internalType": "uint256",
          "name": "_ticketId",
          "type": "uint256"
        }
      ],
      "name": "verifyTicket",
      "outputs": [
        {
          "internalType": "bool",
          "name": "isValid",
          "type": "bool"
        },
        {
          "internalType": "uint256",
          "name": "eventId",
          "type": "uint256"
        },
        {
          "internalType": "uint256",
          "name": "seatNumber",
          "type": "uint256"
        },
        {
          "internalType": "bool",
          "name": "isUsed",
          "type": "bool"
        },
        {
          "internalType": "address",
          "name": "currentOwner",
          "type": "address"
        },
        {
          "internalType": "string",
          "name": "eventName",
          "type": "string"
        }
      ],
      "stateMutability": "view",
      "type": "function",
      "constant": true
    },
    {
      "inputs": [
        {
          "internalType": "uint256",
          "name": "_eventId",
          "type": "uint256"
        }
      ],
      "name": "getEvent",
      "outputs": [
        {
          "components": [
            {
              "internalType": "uint256",
              "name": "id",
              "type": "uint256"
            },
            {
              "internalType": "string",
              "name": "name",
              "type": "string"
            },
            {
              "internalType": "string",
              "name": "venue",
              "type": "string"
            },
            {
              "internalType": "uint256",
              "name": "date",
              "type": "uint256"
            },
            {
              "internalType": "uint256",
              "name": "ticketPrice",
              "type": "uint256"
            },
            {
              "internalType": "uint256",
              "name": "totalSeats",
              "type": "uint256"
            },
            {
              "internalType": "uint256",
              "name": "soldTickets",
              "type": "uint256"
            },
            {
              "internalType": "address",
              "name": "organizer",
              "type": "address"
            },
            {
              "internalType": "bool",
              "name": "isActive",
              "type": "bool"
            }
          ],
          "internalType": "struct ConcertTickets.Event",
          "name": "",
          "type": "tuple"
        }
      ],
      "stateMutability": "view",
      "type": "function",
      "constant": true
    },
    {
      "inputs": [],
      "name": "getActiveEvents",
      "outputs": [
        {
          "internalType": "uint256[]",
          "name": "",
          "type": "uint256[]"
        }
      ],
      "stateMutability": "view",
      "type": "function",
      "constant": true
    },
    {
      "inputs": [
        {
          "internalType": "address",
          "name": "_user",
          "type": "address"
        }
      ],
      "name": "getUserTickets",
      "outputs": [
        {
          "internalType": "uint256[]",
          "name": "",
          "type": "uint256[]"
        }
      ],
      "stateMutability": "view",
      "type": "function",
      "constant": true
    },
    {
      "inputs": [
        {
          "internalType": "uint256",
          "name": "_eventId",
          "type": "uint256"
        },
        {
          "internalType": "uint256",
          "name": "_seatNumber",
          "type": "uint256"
        }
      ],
      "name": "isSeatAvailable",
      "outputs": [
        {
          "internalType": "bool",
          "name": "",
          "type": "bool"
        }
      ],
      "stateMutability": "view",
      "type": "function",
      "constant": true
    },
    {
      "inputs": [
        {
          "internalType": "uint256",
          "name": "_feePercent",
          "type": "uint256"
        }
      ],
      "name": "setPlatformFee",
      "outputs": [],
      "stateMutability": "nonpayable",
      "type": "function"
    },
    {
      "inputs": [
        {
          "internalType": "address",
          "name": "_wallet",
          "type": "address"
        }
      ],
      "name": "setPlatformWallet",
      "outputs": [],
      "stateMutability": "nonpayable",
      "type": "function"
    },
    {
      "inputs": [
        {
          "internalType": "uint256",
          "name": "_eventId",
          "type": "uint256"
        }
      ],
      "name": "deactivateEvent",
      "outputs": [],
      "stateMutability": "nonpayable",
      "type": "function"
    },
    {
      "inputs": [
        {
          "internalType": "bytes4",
          "name": "interfaceId",
          "type": "bytes4"
        }
      ],
      "name": "supportsInterface",
      "outputs": [
        {
          "internalType": "bool",
          "name": "",
          "type": "bool"
        }
      ],
      "stateMutability": "view",
      "type": "function",
      "constant": true
    }
  ],
  "bytecode": "0x608060405260fa60115534801561001557600080fd5b50336040518060400160405280600e81526020016d436f6e636572745469636b65747360901b81525060405180604001604052806004815260200163086a892b60e31b815250816000908161006a91906101ba565b50600161007782826101ba565b5050506001600160a01b0381166100a857604051631e4fbdf760e01b81526000600482015260240160405180910390fd5b6100b1816100c9565b50601280546001600160a01b03191633179055610278565b600a80546001600160a01b038381166001600160a01b0319831681179093556040519116919082907f8be0079c531659141344cd1fd0a4f28419497f9722a3daafe3b4186f6b6457e090600090a35050565b634e487b7160e01b600052604160045260246000fd5b600181811c9082168061014557607f821691505b60208210810361016557634e487b7160e01b600052602260045260246000fd5b50919050565b601f8211156101b557806000526020600020601f840160051c810160208510156101925750805b601f840160051c820191505b818110156101b2576000815560010161019e565b50505b505050565b81516001600160401b038111156101d3576101d361011b565b6101e7816101e18454610131565b8461016b565b6020601f82116001811461021b57600083156102035750848201515b600019600385901b1c1916600184901b1784556101b2565b600084815260208120601f198516915b8281101561024b578785015182556020948501946001909201910161022b565b50848210156102695786840151600019600387901b60f8161c191681555b50505050600190811b01905550565b612d98806102876000396000f3fe60806040526004361061020f5760003560e01c8063543cb81f1161011857806395d89b41116100a0578063bdbbb0cb1161006f578063bdbbb0cb146106f6578063c87b56dd14610709578063e985e9c514610729578063f2fde38b14610749578063fa2af9da1461076957600080fd5b806395d89b4114610666578063a22cb4651461067b578063af296da11461069b578063b88d4fde146106d657600080fd5b8063715018a6116100e7578063715018a6146105dd5780638831e9cf146105f25780638c639a85146106125780638da5cb5b14610628578063957a632e1461064657600080fd5b8063543cb81f1461053e5780636352211e146105705780636d1884e01461059057806370a08231146105bd57600080fd5b8063266064481161019b5780633c2fc56c1161016a5780633c2fc56c146104135780633ec5c4581461043357806342842e0e1461046f5780634f6ccce71461048f57806350b44712146104af57600080fd5b806326606448146103865780632773b799146103a65780632f745c59146103de5780633612280f146103fe57600080fd5b8063095ea7b3116101e2578063095ea7b3146102d05780630b791430146102f257806312e8e2c31461032757806318160ddd1461034757806323b872dd1461036657600080fd5b806301ffc9a7146102145780630484a22f1461024957806306fdde0314610276578063081812fc14610298575b600080fd5b34801561022057600080fd5b5061023461022f3660046125a0565b610789565b60405190151581526020015b60405180910390f35b34801561025557600080fd5b506102696102643660046125d9565b61079a565b60405161024091906125f4565b34801561028257600080fd5b5061028b610832565b6040516102409190612687565b3480156102a457600080fd5b506102b86102b336600461269a565b6108c4565b6040516001600160a01b039091168152602001610240565b3480156102dc57600080fd5b506102f06102eb3660046126b3565b6108ed565b005b3480156102fe57600080fd5b5061031261030d36600461269a565b6108fc565b604051610240999897969594939291906126dd565b34801561033357600080fd5b506102f061034236600461269a565b610a64565b34801561035357600080fd5b506008545b604051908152602001610240565b34801561037257600080fd5b506102f061038136600461274a565b610ac0565b34801561039257600080fd5b506102f06103a136600461269a565b610b4b565b3480156103b257600080fd5b506103586103c1366004612787565b601060209081526000928352604080842090915290825290205481565b3480156103ea57600080fd5b506103586103f93660046126b3565b610d03565b34801561040a57600080fd5b50610269610d68565b34801561041f57600080fd5b5061035861042e366004612859565b610eb2565b34801561043f57600080fd5b5061023461044e366004612787565b6000918252600f6020908152604080842092845291905290205460ff161590565b34801561047b57600080fd5b506102f061048a36600461274a565b6110f3565b34801561049b57600080fd5b506103586104aa36600461269a565b611113565b3480156104bb57600080fd5b506105066104ca36600461269a565b600e60205260009081526040902080546001820154600283015460038401546004909401549293919260ff90911691906001600160a01b031685565b6040516102409594939291909485526020850193909352901515604084015260608301526001600160a01b0316608082015260a00190565b34801561054a57600080fd5b5061055e61055936600461269a565b61116c565b604051610240969594939291906128dd565b34801561057c57600080fd5b506102b861058b36600461269a565b6112a6565b34801561059c57600080fd5b506105b06105ab36600461269a565b6112b1565b6040516102409190612926565b3480156105c957600080fd5b506103586105d83660046125d9565b6114d9565b3480156105e957600080fd5b506102f0611521565b3480156105fe57600080fd5b506102f061060d3660046125d9565b611535565b34801561061e57600080fd5b5061035860115481565b34801561063457600080fd5b50600a546001600160a01b03166102b8565b34801561065257600080fd5b506102f061066136600461269a565b61155f565b34801561067257600080fd5b5061028b611601565b34801561068757600080fd5b506102f06106963660046129c6565b611610565b3480156106a757600080fd5b506102346106b6366004612787565b600f60209081526000928352604080842090915290825290205460ff1681565b3480156106e257600080fd5b506102f06106f1366004612a02565b61161b565b610358610704366004612787565b611633565b34801561071557600080fd5b5061028b61072436600461269a565b6119f2565b34801561073557600080fd5b50610234610744366004612a7e565b611a67565b34801561075557600080fd5b506102f06107643660046125d9565b611a95565b34801561077557600080fd5b506012546102b8906001600160a01b031681565b600061079482611ad3565b92915050565b606060006107a7836114d9565b905060008167ffffffffffffffff8111156107c4576107c46127a9565b6040519080825280602002602001820160405280156107ed578160200160208202803683370190505b50905060005b8281101561082a576108058582610d03565b82828151811061081757610817612ab1565b60209081029190910101526001016107f3565b509392505050565b60606000805461084190612ac7565b80601f016020809104026020016040519081016040528092919081815260200182805461086d90612ac7565b80156108ba5780601f1061088f576101008083540402835291602001916108ba565b820191906000526020600020905b81548152906001019060200180831161089d57829003601f168201915b5050505050905090565b60006108cf82611af8565b506000828152600460205260409020546001600160a01b0316610794565b6108f8828233611b31565b5050565b600d602052600090815260409020805460018201805491929161091e90612ac7565b80601f016020809104026020016040519081016040528092919081815260200182805461094a90612ac7565b80156109975780601f1061096c57610100808354040283529160200191610997565b820191906000526020600020905b81548152906001019060200180831161097a57829003601f168201915b5050505050908060020180546109ac90612ac7565b80601f01602080910402602001604051908101604052809291908181526020018280546109d890612ac7565b8015610a255780601f106109fa57610100808354040283529160200191610a25565b820191906000526020600020905b815481529060010190602001808311610a0857829003601f168201915b50505060038401546004850154600586015460068701546007909701549596929591945092506001600160a01b0381169060ff600160a01b9091041689565b610a6c611b3e565b6103e8811115610abb5760405162461bcd60e51b81526020600482015260156024820152744665652063616e6e6f74206578636565642031302560581b60448201526064015b60405180910390fd5b601155565b6001600160a01b038216610aea57604051633250574960e11b815260006004820152602401610ab2565b6000610af7838333611b6b565b9050836001600160a01b0316816001600160a01b031614610b45576040516364283d7b60e01b81526001600160a01b0380861660048301526024820184905282166044820152606401610ab2565b50505050565b6000818152600260205260409020546001600160a01b0316610ba75760405162461bcd60e51b8152602060048201526015602482015274151a58dad95d08191bd95cc81b9bdd08195e1a5cdd605a1b6044820152606401610ab2565b6000818152600e6020908152604080832080548452600d909252909120600282015460ff1615610c0f5760405162461bcd60e51b8152602060048201526013602482015272151a58dad95d08185b1c9958591e481d5cd959606a1b6044820152606401610ab2565b610c1c4262015180612b17565b81600301541115610c6f5760405162461bcd60e51b815260206004820152601760248201527f546f6f206561726c7920746f20757365207469636b65740000000000000000006044820152606401610ab2565b610c7c6201518042612b2a565b81600301541015610cc25760405162461bcd60e51b815260206004820152601060248201526f115d995b9d081a185cc81c185cdcd95960821b6044820152606401610ab2565b60028201805460ff19166001179055815460405184907fad0a02848182e7d3a9bb0ae2cc919bdef92f9da6b0a45ced3656cf5443212ede90600090a3505050565b6000610d0e836114d9565b8210610d3f5760405163295f44f760e21b81526001600160a01b038416600482015260248101839052604401610ab2565b506001600160a01b03919091166000908152600660209081526040808320938352929052205490565b60606000600b5467ffffffffffffffff811115610d8757610d876127a9565b604051908082528060200260200182016040528015610db0578160200160208202803683370190505b509050600060015b600b548111610e20576000818152600d6020526040902060070154600160a01b900460ff1615610e0e5780838381518110610df557610df5612ab1565b602090810291909101015281610e0a81612b3d565b9250505b80610e1881612b3d565b915050610db8565b5060008167ffffffffffffffff811115610e3c57610e3c6127a9565b604051908082528060200260200182016040528015610e65578160200160208202803683370190505b50905060005b8281101561082a57838181518110610e8557610e85612ab1565b6020026020010151828281518110610e9f57610e9f612ab1565b6020908102919091010152600101610e6b565b6000428411610f035760405162461bcd60e51b815260206004820152601a60248201527f44617465206d75737420626520696e20746865206675747572650000000000006044820152606401610ab2565b60008311610f535760405162461bcd60e51b815260206004820152601c60248201527f5072696365206d7573742062652067726561746572207468616e2030000000006044820152606401610ab2565b60008211610fae5760405162461bcd60e51b815260206004820152602260248201527f546f74616c207365617473206d7573742062652067726561746572207468616e604482015261020360f41b6064820152608401610ab2565b600b8054906000610fbe83612b3d565b9091555050600b54604080516101208101825282815260208082018a81528284018a9052606083018990526080830188905260a08301879052600060c084018190523360e085015260016101008501819052868252600d90935293909320825181559251919291908201906110339082612b9d565b50604082015160028201906110489082612b9d565b50606082015160038201556080820151600482015560a0820151600582015560c0820151600682015560e082015160079091018054610100909301511515600160a01b026001600160a81b03199093166001600160a01b0390921691909117919091179055604051339082907f40fb05b814a900c99fa0a76d919dfdeaf3389540e4ca70f97ba40ca9a38f3797906110e1908b90612687565b60405180910390a39695505050505050565b61110e8383836040518060200160405280600081525061161b565b505050565b600061111e60085490565b82106111475760405163295f44f760e21b81526000600482015260248101839052604401610ab2565b6008828154811061115a5761115a612ab1565b90600052602060002001549050919050565b600080808080606081611194886000908152600260205260409020546001600160a01b031690565b6001600160a01b0316036111c6575050604080516020810190915260008082529450849350839250829150819061129d565b6000878152600e602090815260408083208054808552600d909352922060018084015460028501549293919260ff166111fe8d6112a6565b8560010180805461120e90612ac7565b80601f016020809104026020016040519081016040528092919081815260200182805461123a90612ac7565b80156112875780601f1061125c57610100808354040283529160200191611287565b820191906000526020600020905b81548152906001019060200180831161126a57829003601f168201915b5050505050905097509750975097509750975050505b91939550919395565b600061079482611af8565b61130b6040518061012001604052806000815260200160608152602001606081526020016000815260200160008152602001600081526020016000815260200160006001600160a01b031681526020016000151581525090565b6000828152600d602052604081205490036113385760405162461bcd60e51b8152600401610ab290612c5c565b600d6000838152602001908152602001600020604051806101200160405290816000820154815260200160018201805461137190612ac7565b80601f016020809104026020016040519081016040528092919081815260200182805461139d90612ac7565b80156113ea5780601f106113bf576101008083540402835291602001916113ea565b820191906000526020600020905b8154815290600101906020018083116113cd57829003601f168201915b5050505050815260200160028201805461140390612ac7565b80601f016020809104026020016040519081016040528092919081815260200182805461142f90612ac7565b801561147c5780601f106114515761010080835404028352916020019161147c565b820191906000526020600020905b81548152906001019060200180831161145f57829003601f168201915b5050509183525050600382015460208201526004820154604082015260058201546060820152600682015460808201526007909101546001600160a01b03811660a0830152600160a01b900460ff16151560c09091015292915050565b60006001600160a01b038216611505576040516322718ad960e21b815260006004820152602401610ab2565b506001600160a01b031660009081526003602052604090205490565b611529611b3e565b6115336000611c01565b565b61153d611b3e565b601280546001600160a01b0319166001600160a01b0392909216919091179055565b6000818152600d60205260408120805490910361158e5760405162461bcd60e51b8152600401610ab290612c5c565b60078101546001600160a01b03163314806115b35750600a546001600160a01b031633145b6115f05760405162461bcd60e51b815260206004820152600e60248201526d139bdd08185d5d1a1bdc9a5e995960921b6044820152606401610ab2565b600701805460ff60a01b1916905550565b60606001805461084190612ac7565b6108f8338383611c53565b611626848484610ac0565b610b453385858585611cf2565b6000828152600d60205260408120805482036116615760405162461bcd60e51b8152600401610ab290612c5c565b6007810154600160a01b900460ff166116b25760405162461bcd60e51b81526020600482015260136024820152724576656e74206973206e6f742061637469766560681b6044820152606401610ab2565b428160030154116117055760405162461bcd60e51b815260206004820152601860248201527f4576656e742068617320616c72656164792070617373656400000000000000006044820152606401610ab2565b600083118015611719575080600501548311155b61175b5760405162461bcd60e51b815260206004820152601360248201527224b73b30b634b21039b2b0ba10373ab6b132b960691b6044820152606401610ab2565b6000848152600f6020908152604080832086845290915290205460ff16156117ba5760405162461bcd60e51b815260206004820152601260248201527129b2b0ba1030b63932b0b23c903a30b5b2b760711b6044820152606401610ab2565b8060040154341461180d5760405162461bcd60e51b815260206004820152601860248201527f496e636f7272656374207061796d656e7420616d6f756e7400000000000000006044820152606401610ab2565b600c805490600061181d83612b3d565b9091555050600c5461182f3382611e1d565b6040805160a0810182528681526020808201878152600083850181815242606086019081523360808701908152888452600e8652878420965187559351600187810191909155915160028701805491151560ff19928316179055905160038701559251600490950180546001600160a01b03969096166001600160a01b031990961695909517909455898152600f8352848120898252835284812080549092169093179055878252601081528282208783529052908120829055600683018054916118f983612b3d565b91905055506000612710601154346119119190612c8a565b61191b9190612ca1565b905060006119298234612b2a565b60078501546040519192506001600160a01b03169082156108fc029083906000818181858888f19350505050158015611966573d6000803e3d6000fd5b506012546040516001600160a01b039091169083156108fc029084906000818181858888f193505050501580156119a1573d6000803e3d6000fd5b50336001600160a01b031687847ff4810f4af7d42912f869f8efa162c4287b2dbce7d45c8777141a2c01d68bc0af896040516119df91815260200190565b60405180910390a4509095945050505050565b60606119fd82611af8565b506000611a1560408051602081019091526000815290565b90506000815111611a355760405180602001604052806000815250611a60565b80611a3f84611e37565b604051602001611a50929190612cc3565b6040516020818303038152906040525b9392505050565b6001600160a01b03918216600090815260056020908152604080832093909416825291909152205460ff1690565b611a9d611b3e565b6001600160a01b038116611ac757604051631e4fbdf760e01b815260006004820152602401610ab2565b611ad081611c01565b50565b60006001600160e01b0319821663780e9d6360e01b1480610794575061079482611eca565b6000818152600260205260408120546001600160a01b03168061079457604051637e27328960e01b815260048101849052602401610ab2565b61110e8383836001611f1a565b600a546001600160a01b031633146115335760405163118cdaa760e01b8152336004820152602401610ab2565b6000828152600260205260408120546001600160a01b031681611b8f868686612020565b90506001600160a01b03821615801590611bb157506001600160a01b03861615155b15611bf857856001600160a01b0316826001600160a01b0316867fd15524263ae66f75c1e604c47db6085085110f23ef7322b355179ac5e3b0783a60405160405180910390a45b95945050505050565b600a80546001600160a01b038381166001600160a01b0319831681179093556040519116919082907f8be0079c531659141344cd1fd0a4f28419497f9722a3daafe3b4186f6b6457e090600090a35050565b6001600160a01b038216611c8557604051630b61174360e31b81526001600160a01b0383166004820152602401610ab2565b6001600160a01b03838116600081815260056020908152604080832094871680845294825291829020805460ff191686151590811790915591519182527f17307eab39ab6107e8899845ad3d59bd9653f200f220920489ca2b5937696c31910160405180910390a3505050565b6001600160a01b0383163b15611e1657604051630a85bd0160e11b81526001600160a01b0384169063150b7a0290611d34908890889087908790600401612cf2565b6020604051808303816000875af1925050508015611d6f575060408051601f3d908101601f19168201909252611d6c91810190612d2f565b60015b611dd8573d808015611d9d576040519150601f19603f3d011682016040523d82523d6000602084013e611da2565b606091505b508051600003611dd057604051633250574960e11b81526001600160a01b0385166004820152602401610ab2565b805160208201fd5b6001600160e01b03198116630a85bd0160e11b14611e1457604051633250574960e11b81526001600160a01b0385166004820152602401610ab2565b505b5050505050565b6108f88282604051806020016040528060008152506120f5565b60606000611e448361210d565b600101905060008167ffffffffffffffff811115611e6457611e646127a9565b6040519080825280601f01601f191660200182016040528015611e8e576020820181803683370190505b5090508181016020015b600019016f181899199a1a9b1b9c1cb0b131b232b360811b600a86061a8153600a8504945084611e9857509392505050565b60006001600160e01b031982166380ac58cd60e01b1480611efb57506001600160e01b03198216635b5e139f60e01b145b8061079457506301ffc9a760e01b6001600160e01b0319831614610794565b8080611f2e57506001600160a01b03821615155b15611ff0576000611f3e84611af8565b90506001600160a01b03831615801590611f6a5750826001600160a01b0316816001600160a01b031614155b8015611f7d5750611f7b8184611a67565b155b15611fa65760405163a9fbf51f60e01b81526001600160a01b0384166004820152602401610ab2565b8115611fee5783856001600160a01b0316826001600160a01b03167f8c5be1e5ebec7d5bd14f71427d1e84f3dd0314c0f7b2291e5b200ac8c7c3b92560405160405180910390a45b505b5050600090815260046020526040902080546001600160a01b0319166001600160a01b0392909216919091179055565b60008061202e8585856121e5565b90506001600160a01b03811661208b5761208684600880546000838152600960205260408120829055600182018355919091527ff3f7a9fe364faab93b216da50a3214154f22a0a2b415b23a84c8169e8b636ee30155565b6120ae565b846001600160a01b0316816001600160a01b0316146120ae576120ae81856122de565b6001600160a01b0385166120ca576120c58461235f565b6120ed565b846001600160a01b0316816001600160a01b0316146120ed576120ed858561240e565b949350505050565b6120ff838361245e565b61110e336000858585611cf2565b60008072184f03e93ff9f4daa797ed6e38ed64bf6a1f0160401b831061214c5772184f03e93ff9f4daa797ed6e38ed64bf6a1f0160401b830492506040015b6d04ee2d6d415b85acef81000000008310612178576d04ee2d6d415b85acef8100000000830492506020015b662386f26fc10000831061219657662386f26fc10000830492506010015b6305f5e10083106121ae576305f5e100830492506008015b61271083106121c257612710830492506004015b606483106121d4576064830492506002015b600a83106107945760010192915050565b6000828152600260205260408120546001600160a01b0390811690831615612212576122128184866124c3565b6001600160a01b038116156122505761222f600085600080611f1a565b6001600160a01b038116600090815260036020526040902080546000190190555b6001600160a01b0385161561227f576001600160a01b0385166000908152600360205260409020805460010190555b60008481526002602052604080822080546001600160a01b0319166001600160a01b0389811691821790925591518793918516917fddf252ad1be2c89b69c2b068fc378daa952ba7f163c4a11628f55a4df523b3ef91a4949350505050565b60006122e9836114d9565b6000838152600760209081526040808320546001600160a01b038816845260069092529091209192509081831461234057600083815260208281526040808320548584528184208190558352600790915290208290555b6000938452600760209081526040808620869055938552525081205550565b60085460009061237190600190612b2a565b6000838152600960205260408120546008805493945090928490811061239957612399612ab1565b9060005260206000200154905080600883815481106123ba576123ba612ab1565b60009182526020808320909101929092558281526009909152604080822084905585825281205560088054806123f2576123f2612d4c565b6001900381819060005260206000200160009055905550505050565b6000600161241b846114d9565b6124259190612b2a565b6001600160a01b039093166000908152600660209081526040808320868452825280832085905593825260079052919091209190915550565b6001600160a01b03821661248857604051633250574960e11b815260006004820152602401610ab2565b600061249683836000611b6b565b90506001600160a01b0381161561110e576040516339e3563760e11b815260006004820152602401610ab2565b6124ce838383612527565b61110e576001600160a01b0383166124fc57604051637e27328960e01b815260048101829052602401610ab2565b60405163177e802f60e01b81526001600160a01b038316600482015260248101829052604401610ab2565b60006001600160a01b038316158015906120ed5750826001600160a01b0316846001600160a01b0316148061256157506125618484611a67565b806120ed5750506000908152600460205260409020546001600160a01b03908116911614919050565b6001600160e01b031981168114611ad057600080fd5b6000602082840312156125b257600080fd5b8135611a608161258a565b80356001600160a01b03811681146125d457600080fd5b919050565b6000602082840312156125eb57600080fd5b611a60826125bd565b602080825282518282018190526000918401906040840190835b8181101561262c57835183526020938401939092019160010161260e565b509095945050505050565b60005b8381101561265257818101518382015260200161263a565b50506000910152565b60008151808452612673816020860160208601612637565b601f01601f19169290920160200192915050565b602081526000611a60602083018461265b565b6000602082840312156126ac57600080fd5b5035919050565b600080604083850312156126c657600080fd5b6126cf836125bd565b946020939093013593505050565b898152610120602082015260006126f861012083018b61265b565b828103604084015261270a818b61265b565b60608401999099525050608081019590955260a085019390935260c08401919091526001600160a01b031660e08301521515610100909101529392505050565b60008060006060848603121561275f57600080fd5b612768846125bd565b9250612776602085016125bd565b929592945050506040919091013590565b6000806040838503121561279a57600080fd5b50508035926020909101359150565b634e487b7160e01b600052604160045260246000fd5b60008067ffffffffffffffff8411156127da576127da6127a9565b50604051601f19601f85018116603f0116810181811067ffffffffffffffff82111715612809576128096127a9565b60405283815290508082840185101561282157600080fd5b83836020830137600060208583010152509392505050565b600082601f83011261284a57600080fd5b611a60838335602085016127bf565b600080600080600060a0868803121561287157600080fd5b853567ffffffffffffffff81111561288857600080fd5b61289488828901612839565b955050602086013567ffffffffffffffff8111156128b157600080fd5b6128bd88828901612839565b959895975050505060408401359360608101359360809091013592509050565b8615158152856020820152846040820152831515606082015260018060a01b038316608082015260c060a0820152600061291a60c083018461265b565b98975050505050505050565b602081528151602082015260006020830151610120604084015261294e61014084018261265b565b90506040840151601f1984830301606085015261296b828261265b565b91505060608401516080840152608084015160a084015260a084015160c084015260c084015160e084015260e08401516129b16101008501826001600160a01b03169052565b5061010084015180151561012085015261082a565b600080604083850312156129d957600080fd5b6129e2836125bd565b9150602083013580151581146129f757600080fd5b809150509250929050565b60008060008060808587031215612a1857600080fd5b612a21856125bd565b9350612a2f602086016125bd565b925060408501359150606085013567ffffffffffffffff811115612a5257600080fd5b8501601f81018713612a6357600080fd5b612a72878235602084016127bf565b91505092959194509250565b60008060408385031215612a9157600080fd5b612a9a836125bd565b9150612aa8602084016125bd565b90509250929050565b634e487b7160e01b600052603260045260246000fd5b600181811c90821680612adb57607f821691505b602082108103612afb57634e487b7160e01b600052602260045260246000fd5b50919050565b634e487b7160e01b600052601160045260246000fd5b8082018082111561079457610794612b01565b8181038181111561079457610794612b01565b600060018201612b4f57612b4f612b01565b5060010190565b601f82111561110e57806000526020600020601f840160051c81016020851015612b7d5750805b601f840160051c820191505b81811015611e165760008155600101612b89565b815167ffffffffffffffff811115612bb757612bb76127a9565b612bcb81612bc58454612ac7565b84612b56565b6020601f821160018114612bff5760008315612be75750848201515b600019600385901b1c1916600184901b178455611e16565b600084815260208120601f198516915b82811015612c2f5787850151825560209485019460019092019101612c0f565b5084821015612c4d5786840151600019600387901b60f8161c191681555b50505050600190811b01905550565b602080825260149082015273115d995b9d08191bd95cc81b9bdd08195e1a5cdd60621b604082015260600190565b808202811582820484141761079457610794612b01565b600082612cbe57634e487b7160e01b600052601260045260246000fd5b500490565b60008351612cd5818460208801612637565b835190830190612ce9818360208801612637565b01949350505050565b6001600160a01b0385811682528416602082015260408101839052608060608201819052600090612d259083018461265b565b9695505050505050565b600060208284031215612d4157600080fd5b8151611a608161258a565b634e487b7160e01b600052603160045260246000fdfea2646970667358221220463d5c22001702721f5e327369f0b3f8920b793e9325f2f39eaf9337f2060a3664736f6c634300081e0033",
  "immutableReferences": {},
  "source": "// SPDX-License-Identifier: MIT\r\npragma solidity ^0.8.19;\r\n\r\nimport \"@openzeppelin/contracts/token/ERC721/ERC721.sol\";\r\nimport \"@openzeppelin/contracts/token/ERC721/extensions/ERC721Enumerable.sol\";\r\nimport \"@openzeppelin/contracts/access/Ownable.sol\";\r\n\r\ncontract ConcertTickets is ERC721, ERC721Enumerable, Ownable {\r\n    \r\n    // Compteurs manuels pour les IDs des vnements et des billets\r\n    uint256 private _eventIds;\r\n    uint256 private _tokenIds;\r\n    \r\n    // Structure pour dfinir un vnement\r\n    struct Event {\r\n        uint256 id;\r\n        string name;\r\n        string venue;\r\n        uint256 date;\r\n        uint256 ticketPrice;\r\n        uint256 totalSeats;\r\n        uint256 soldTickets;\r\n        address organizer;\r\n        bool isActive;\r\n    }\r\n    \r\n    // Structure pour dfinir un billet\r\n    struct Ticket {\r\n        uint256 eventId;\r\n        uint256 seatNumber;\r\n        bool isUsed;\r\n        uint256 purchaseDate;\r\n        address originalBuyer;\r\n    }\r\n    \r\n    // Mappings\r\n    mapping(uint256 => Event) public events;\r\n    mapping(uint256 => Ticket) public tickets;\r\n    mapping(uint256 => mapping(uint256 => bool)) public seatTaken; // eventId => seatNumber => taken\r\n    mapping(uint256 => mapping(uint256 => uint256)) public seatToTicket; // eventId => seatNumber => ticketId\r\n    \r\n    // Commission de la plateforme (2.5%)\r\n    uint256 public platformFeePercent = 250; // 250 = 2.5% (base 10000)\r\n    address public platformWallet;\r\n    \r\n    // Events\r\n    event EventCreated(uint256 indexed eventId, string name, address indexed organizer);\r\n    event TicketPurchased(uint256 indexed ticketId, uint256 indexed eventId, uint256 seatNumber, address indexed buyer);\r\n    event TicketTransferred(uint256 indexed ticketId, address indexed from, address indexed to);\r\n    event TicketUsed(uint256 indexed ticketId, uint256 indexed eventId);\r\n    \r\n    constructor() ERC721(\"ConcertTickets\", \"CTIX\") Ownable(msg.sender) {\r\n        platformWallet = msg.sender;\r\n    }\r\n    \r\n    // Crer un nouvel vnement\r\n    function createEvent(\r\n        string memory _name,\r\n        string memory _venue,\r\n        uint256 _date,\r\n        uint256 _ticketPrice,\r\n        uint256 _totalSeats\r\n    ) public returns (uint256) {\r\n        require(_date > block.timestamp, \"Date must be in the future\");\r\n        require(_ticketPrice > 0, \"Price must be greater than 0\");\r\n        require(_totalSeats > 0, \"Total seats must be greater than 0\");\r\n        \r\n        _eventIds++;\r\n        uint256 eventId = _eventIds;\r\n        \r\n        events[eventId] = Event({\r\n            id: eventId,\r\n            name: _name,\r\n            venue: _venue,\r\n            date: _date,\r\n            ticketPrice: _ticketPrice,\r\n            totalSeats: _totalSeats,\r\n            soldTickets: 0,\r\n            organizer: msg.sender,\r\n            isActive: true\r\n        });\r\n        \r\n        emit EventCreated(eventId, _name, msg.sender);\r\n        return eventId;\r\n    }\r\n    \r\n    // Acheter un billet\r\n    function purchaseTicket(uint256 _eventId, uint256 _seatNumber) public payable returns (uint256) {\r\n        Event storage eventObj = events[_eventId];\r\n        require(eventObj.id != 0, \"Event does not exist\");\r\n        require(eventObj.isActive, \"Event is not active\");\r\n        require(eventObj.date > block.timestamp, \"Event has already passed\");\r\n        require(_seatNumber > 0 && _seatNumber <= eventObj.totalSeats, \"Invalid seat number\");\r\n        require(!seatTaken[_eventId][_seatNumber], \"Seat already taken\");\r\n        require(msg.value == eventObj.ticketPrice, \"Incorrect payment amount\");\r\n        \r\n        // Crer le billet NFT\r\n        _tokenIds++;\r\n        uint256 ticketId = _tokenIds;\r\n        \r\n        // Mint le NFT\r\n        _safeMint(msg.sender, ticketId);\r\n        \r\n        // Enregistrer les dtails du billet\r\n        tickets[ticketId] = Ticket({\r\n            eventId: _eventId,\r\n            seatNumber: _seatNumber,\r\n            isUsed: false,\r\n            purchaseDate: block.timestamp,\r\n            originalBuyer: msg.sender\r\n        });\r\n        \r\n        // Marquer le sige comme pris\r\n        seatTaken[_eventId][_seatNumber] = true;\r\n        seatToTicket[_eventId][_seatNumber] = ticketId;\r\n        \r\n        // Incrmenter le nombre de billets vendus\r\n        eventObj.soldTickets++;\r\n        \r\n        // Distribuer les paiements\r\n        uint256 platformFee = (msg.value * platformFeePercent) / 10000;\r\n        uint256 organizerPayment = msg.value - platformFee;\r\n        \r\n        // Envoyer  l'organisateur (97.5%)\r\n        payable(eventObj.organizer).transfer(organizerPayment);\r\n        \r\n        // Envoyer la commission  la plateforme (2.5%)\r\n        payable(platformWallet).transfer(platformFee);\r\n        \r\n        emit TicketPurchased(ticketId, _eventId, _seatNumber, msg.sender);\r\n        return ticketId;\r\n    }\r\n    \r\n    // Utiliser un billet (pour l'entre au concert)\r\n    function useTicket(uint256 _ticketId) public {\r\n        require(_ownerOf(_ticketId) != address(0), \"Ticket does not exist\");\r\n        \r\n        Ticket storage ticket = tickets[_ticketId];\r\n        Event storage eventObj = events[ticket.eventId];\r\n        \r\n        require(!ticket.isUsed, \"Ticket already used\");\r\n        require(eventObj.date <= block.timestamp + 1 days, \"Too early to use ticket\");\r\n        require(eventObj.date >= block.timestamp - 1 days, \"Event has passed\");\r\n        \r\n        // Marquer le billet comme utilis\r\n        ticket.isUsed = true;\r\n        \r\n        emit TicketUsed(_ticketId, ticket.eventId);\r\n    }\r\n    \r\n    // Vrifier la validit d'un billet\r\n    function verifyTicket(uint256 _ticketId) public view returns (\r\n        bool isValid,\r\n        uint256 eventId,\r\n        uint256 seatNumber,\r\n        bool isUsed,\r\n        address currentOwner,\r\n        string memory eventName\r\n    ) {\r\n        if (_ownerOf(_ticketId) == address(0)) {\r\n            return (false, 0, 0, false, address(0), \"\");\r\n        }\r\n        \r\n        Ticket storage ticket = tickets[_ticketId];\r\n        Event storage eventObj = events[ticket.eventId];\r\n        \r\n        return (\r\n            true,\r\n            ticket.eventId,\r\n            ticket.seatNumber,\r\n            ticket.isUsed,\r\n            ownerOf(_ticketId),\r\n            eventObj.name\r\n        );\r\n    }\r\n    \r\n    // Obtenir les dtails d'un vnement\r\n    function getEvent(uint256 _eventId) public view returns (Event memory) {\r\n        require(events[_eventId].id != 0, \"Event does not exist\");\r\n        return events[_eventId];\r\n    }\r\n    \r\n    // Obtenir tous les vnements actifs\r\n    function getActiveEvents() public view returns (uint256[] memory) {\r\n        uint256[] memory activeEvents = new uint256[](_eventIds);\r\n        uint256 activeCount = 0;\r\n        \r\n        for (uint256 i = 1; i <= _eventIds; i++) {\r\n            if (events[i].isActive) {\r\n                activeEvents[activeCount] = i;\r\n                activeCount++;\r\n            }\r\n        }\r\n        \r\n        // Redimensionner le tableau\r\n        uint256[] memory result = new uint256[](activeCount);\r\n        for (uint256 i = 0; i < activeCount; i++) {\r\n            result[i] = activeEvents[i];\r\n        }\r\n        \r\n        return result;\r\n    }\r\n    \r\n    // Obtenir les billets d'un utilisateur\r\n    function getUserTickets(address _user) public view returns (uint256[] memory) {\r\n        uint256 balance = balanceOf(_user);\r\n        uint256[] memory userTickets = new uint256[](balance);\r\n        \r\n        for (uint256 i = 0; i < balance; i++) {\r\n            userTickets[i] = tokenOfOwnerByIndex(_user, i);\r\n        }\r\n        \r\n        return userTickets;\r\n    }\r\n    \r\n    // Vrifier si un sige est disponible\r\n    function isSeatAvailable(uint256 _eventId, uint256 _seatNumber) public view returns (bool) {\r\n        return !seatTaken[_eventId][_seatNumber];\r\n    }\r\n    \r\n    // Fonctions administratives\r\n    function setPlatformFee(uint256 _feePercent) public onlyOwner {\r\n        require(_feePercent <= 1000, \"Fee cannot exceed 10%\");\r\n        platformFeePercent = _feePercent;\r\n    }\r\n    \r\n    function setPlatformWallet(address _wallet) public onlyOwner {\r\n        platformWallet = _wallet;\r\n    }\r\n    \r\n    function deactivateEvent(uint256 _eventId) public {\r\n        Event storage eventObj = events[_eventId];\r\n        require(eventObj.id != 0, \"Event does not exist\");\r\n        require(msg.sender == eventObj.organizer || msg.sender == owner(), \"Not authorized\");\r\n        \r\n        eventObj.isActive = false;\r\n    }\r\n    \r\n    // Override functions pour la compatibilit\r\n    function _update(address to, uint256 tokenId, address auth)\r\n        internal\r\n        override(ERC721, ERC721Enumerable)\r\n        returns (address)\r\n    {\r\n        address from = _ownerOf(tokenId);\r\n        address previousOwner = super._update(to, tokenId, auth);\r\n        \r\n        // mettre un vnement de transfert personnalis\r\n        if (from != address(0) && to != address(0)) {\r\n            emit TicketTransferred(tokenId, from, to);\r\n        }\r\n        \r\n        return previousOwner;\r\n    }\r\n    \r\n    function _increaseBalance(address account, uint128 value)\r\n        internal\r\n        override(ERC721, ERC721Enumerable)\r\n    {\r\n        super._increaseBalance(account, value);\r\n    }\r\n    \r\n    function supportsInterface(bytes4 interfaceId)\r\n        public\r\n        view\r\n        override(ERC721, ERC721Enumerable)\r\n        returns (bool)\r\n    {\r\n        return super.supportsInterface(interfaceId);\r\n    }\r\n}",
  "sourcePath": "C:\\Users\\Alaed\\concert-tickets-dapp\\blockchain\\contracts\\ConcertTickets.sol",
  "compiler": {
    "name": "solc",
    "version": "0.8.30+commit.73712a01.Emscripten.clang"
  },
  "schemaVersion": "3.4.16",
  "updatedAt": "2025-09-20T21:20:40.359Z",
  "networkType": "ethereum",
  "devdoc": {
    "errors": {
      "ERC721EnumerableForbiddenBatchMint()": [
        {
          "details": "Batch mint is not allowed."
        }
      ],
      "ERC721IncorrectOwner(address,uint256,address)": [
        {
          "details": "Indicates an error related to the ownership over a particular token. Used in transfers.",
          "params": {
            "owner": "Address of the current owner of a token.",
            "sender": "Address whose tokens are being transferred.",
            "tokenId": "Identifier number of a token."
          }
        }
      ],
      "ERC721InsufficientApproval(address,uint256)": [
        {
          "details": "Indicates a failure with the `operator`s approval. Used in transfers.",
          "params": {
            "operator": "Address that may be allowed to operate on tokens without being their owner.",
            "tokenId": "Identifier number of a token."
          }
        }
      ],
      "ERC721InvalidApprover(address)": [
        {
          "details": "Indicates a failure with the `approver` of a token to be approved. Used in approvals.",
          "params": {
            "approver": "Address initiating an approval operation."
          }
        }
      ],
      "ERC721InvalidOperator(address)": [
        {
          "details": "Indicates a failure with the `operator` to be approved. Used in approvals.",
          "params": {
            "operator": "Address that may be allowed to operate on tokens without being their owner."
          }
        }
      ],
      "ERC721InvalidOwner(address)": [
        {
          "details": "Indicates that an address can't be an owner. For example, `address(0)` is a forbidden owner in ERC-20. Used in balance queries.",
          "params": {
            "owner": "Address of the current owner of a token."
          }
        }
      ],
      "ERC721InvalidReceiver(address)": [
        {
          "details": "Indicates a failure with the token `receiver`. Used in transfers.",
          "params": {
            "receiver": "Address to which tokens are being transferred."
          }
        }
      ],
      "ERC721InvalidSender(address)": [
        {
          "details": "Indicates a failure with the token `sender`. Used in transfers.",
          "params": {
            "sender": "Address whose tokens are being transferred."
          }
        }
      ],
      "ERC721NonexistentToken(uint256)": [
        {
          "details": "Indicates a `tokenId` whose `owner` is the zero address.",
          "params": {
            "tokenId": "Identifier number of a token."
          }
        }
      ],
      "ERC721OutOfBoundsIndex(address,uint256)": [
        {
          "details": "An `owner`'s token query was out of bounds for `index`. NOTE: The owner being `address(0)` indicates a global out of bounds index."
        }
      ],
      "OwnableInvalidOwner(address)": [
        {
          "details": "The owner is not a valid owner account. (eg. `address(0)`)"
        }
      ],
      "OwnableUnauthorizedAccount(address)": [
        {
          "details": "The caller account is not authorized to perform an operation."
        }
      ]
    },
    "events": {
      "Approval(address,address,uint256)": {
        "details": "Emitted when `owner` enables `approved` to manage the `tokenId` token."
      },
      "ApprovalForAll(address,address,bool)": {
        "details": "Emitted when `owner` enables or disables (`approved`) `operator` to manage all of its assets."
      },
      "Transfer(address,address,uint256)": {
        "details": "Emitted when `tokenId` token is transferred from `from` to `to`."
      }
    },
    "kind": "dev",
    "methods": {
      "approve(address,uint256)": {
        "details": "Gives permission to `to` to transfer `tokenId` token to another account. The approval is cleared when the token is transferred. Only a single account can be approved at a time, so approving the zero address clears previous approvals. Requirements: - The caller must own the token or be an approved operator. - `tokenId` must exist. Emits an {Approval} event."
      },
      "balanceOf(address)": {
        "details": "Returns the number of tokens in ``owner``'s account."
      },
      "getApproved(uint256)": {
        "details": "Returns the account approved for `tokenId` token. Requirements: - `tokenId` must exist."
      },
      "isApprovedForAll(address,address)": {
        "details": "Returns if the `operator` is allowed to manage all of the assets of `owner`. See {setApprovalForAll}"
      },
      "name()": {
        "details": "Returns the token collection name."
      },
      "owner()": {
        "details": "Returns the address of the current owner."
      },
      "ownerOf(uint256)": {
        "details": "Returns the owner of the `tokenId` token. Requirements: - `tokenId` must exist."
      },
      "renounceOwnership()": {
        "details": "Leaves the contract without owner. It will not be possible to call `onlyOwner` functions. Can only be called by the current owner. NOTE: Renouncing ownership will leave the contract without an owner, thereby disabling any functionality that is only available to the owner."
      },
      "safeTransferFrom(address,address,uint256)": {
        "details": "Safely transfers `tokenId` token from `from` to `to`, checking first that contract recipients are aware of the ERC-721 protocol to prevent tokens from being forever locked. Requirements: - `from` cannot be the zero address. - `to` cannot be the zero address. - `tokenId` token must exist and be owned by `from`. - If the caller is not `from`, it must have been allowed to move this token by either {approve} or   {setApprovalForAll}. - If `to` refers to a smart contract, it must implement {IERC721Receiver-onERC721Received}, which is called upon   a safe transfer. Emits a {Transfer} event."
      },
      "safeTransferFrom(address,address,uint256,bytes)": {
        "details": "Safely transfers `tokenId` token from `from` to `to`. Requirements: - `from` cannot be the zero address. - `to` cannot be the zero address. - `tokenId` token must exist and be owned by `from`. - If the caller is not `from`, it must be approved to move this token by either {approve} or {setApprovalForAll}. - If `to` refers to a smart contract, it must implement {IERC721Receiver-onERC721Received}, which is called upon   a safe transfer. Emits a {Transfer} event."
      },
      "setApprovalForAll(address,bool)": {
        "details": "Approve or remove `operator` as an operator for the caller. Operators can call {transferFrom} or {safeTransferFrom} for any token owned by the caller. Requirements: - The `operator` cannot be the address zero. Emits an {ApprovalForAll} event."
      },
      "symbol()": {
        "details": "Returns the token collection symbol."
      },
      "tokenByIndex(uint256)": {
        "details": "Returns a token ID at a given `index` of all the tokens stored by the contract. Use along with {totalSupply} to enumerate all tokens."
      },
      "tokenOfOwnerByIndex(address,uint256)": {
        "details": "Returns a token ID owned by `owner` at a given `index` of its token list. Use along with {balanceOf} to enumerate all of ``owner``'s tokens."
      },
      "tokenURI(uint256)": {
        "details": "Returns the Uniform Resource Identifier (URI) for `tokenId` token."
      },
      "totalSupply()": {
        "details": "Returns the total amount of tokens stored by the contract."
      },
      "transferFrom(address,address,uint256)": {
        "details": "Transfers `tokenId` token from `from` to `to`. WARNING: Note that the caller is responsible to confirm that the recipient is capable of receiving ERC-721 or else they may be permanently lost. Usage of {safeTransferFrom} prevents loss, though the caller must understand this adds an external call which potentially creates a reentrancy vulnerability. Requirements: - `from` cannot be the zero address. - `to` cannot be the zero address. - `tokenId` token must be owned by `from`. - If the caller is not `from`, it must be approved to move this token by either {approve} or {setApprovalForAll}. Emits a {Transfer} event."
      },
      "transferOwnership(address)": {
        "details": "Transfers ownership of the contract to a new account (`newOwner`). Can only be called by the current owner."
      }
    },
    "version": 1
  },
  "userdoc": {
    "kind": "user",
    "methods": {},
    "version": 1
  }
}